{
  "contractName": "TestTree",
  "sourceName": "contracts/test/TestTree.sol",
  "abi": [
    {
      "inputs": [],
      "stateMutability": "nonpayable",
      "type": "constructor"
    },
    {
      "anonymous": false,
      "inputs": [
        {
          "indexed": true,
          "internalType": "uint256",
          "name": "_id",
          "type": "uint256"
        },
        {
          "indexed": false,
          "internalType": "uint32",
          "name": "_parent",
          "type": "uint32"
        }
      ],
      "name": "VertexInserted",
      "type": "event"
    },
    {
      "inputs": [
        {
          "internalType": "uint32",
          "name": "_vertex",
          "type": "uint32"
        },
        {
          "internalType": "uint32",
          "name": "_depth",
          "type": "uint32"
        }
      ],
      "name": "getAncestorAtDepth",
      "outputs": [
        {
          "internalType": "uint32",
          "name": "",
          "type": "uint32"
        }
      ],
      "stateMutability": "view",
      "type": "function"
    },
    {
      "inputs": [],
      "name": "getDeepest",
      "outputs": [
        {
          "internalType": "uint32",
          "name": "",
          "type": "uint32"
        },
        {
          "internalType": "uint32",
          "name": "",
          "type": "uint32"
        }
      ],
      "stateMutability": "view",
      "type": "function"
    },
    {
      "inputs": [
        {
          "internalType": "uint32",
          "name": "_vertex",
          "type": "uint32"
        }
      ],
      "name": "getDepth",
      "outputs": [
        {
          "internalType": "uint32",
          "name": "",
          "type": "uint32"
        }
      ],
      "stateMutability": "view",
      "type": "function"
    },
    {
      "inputs": [],
      "name": "getTreeSize",
      "outputs": [
        {
          "internalType": "uint32",
          "name": "",
          "type": "uint32"
        }
      ],
      "stateMutability": "view",
      "type": "function"
    },
    {
      "inputs": [
        {
          "internalType": "uint32",
          "name": "_vertex",
          "type": "uint32"
        }
      ],
      "name": "getVertex",
      "outputs": [
        {
          "components": [
            {
              "internalType": "uint32[]",
              "name": "ancestors",
              "type": "uint32[]"
            },
            {
              "internalType": "uint32",
              "name": "depth",
              "type": "uint32"
            }
          ],
          "internalType": "struct Tree.Vertex",
          "name": "",
          "type": "tuple"
        }
      ],
      "stateMutability": "view",
      "type": "function"
    },
    {
      "inputs": [
        {
          "internalType": "uint32",
          "name": "_parent",
          "type": "uint32"
        }
      ],
      "name": "insertVertex",
      "outputs": [],
      "stateMutability": "nonpayable",
      "type": "function"
    }
  ],
  "bytecode": "0x608060405234801561001057600080fd5b5061001b6000610066565b6100256000610066565b61002f6001610066565b6100396002610066565b6100436003610066565b61004d6004610066565b6100576005610066565b6100616006610066565b61012b565b60405163101224d560e11b8152600060048201819052602482015263ffffffff8216604482015273__$74a14bcf01eaef9eb6ea771a290450cb44$__9063202449aa9060640160206040518083038186803b1580156100c457600080fd5b505af41580156100d8573d6000803e3d6000fd5b505050506040513d601f19601f820116820180604052508101906100fc9190610100565b5050565b600060208284031215610111578081fd5b815163ffffffff81168114610124578182fd5b9392505050565b61075f8061013a6000396000f3fe608060405234801561001057600080fd5b50600436106100625760003560e01c8063370841a414610067578063802a6b3014610094578063a62402c3146100a9578063d9339cc3146100c9578063ebc82b47146100ee578063eed1183614610101575b600080fd5b61007a6100753660046105d6565b610109565b60405163ffffffff90911681526020015b60405180910390f35b6100a76100a236600461059e565b6101aa565b005b6100bc6100b736600461059e565b610244565b60405161008b919061063c565b6100d16102f2565b6040805163ffffffff93841681529290911660208301520161008b565b61007a6100fc36600461059e565b610381565b61007a610413565b60405163220d408b60e21b815260006004820181905263ffffffff8085166024840152831660448301529073__$74a14bcf01eaef9eb6ea771a290450cb44$__90638835022c9060640160206040518083038186803b15801561016b57600080fd5b505af415801561017f573d6000803e3d6000fd5b505050506040513d601f19601f820116820180604052508101906101a391906105ba565b9392505050565b60405163101224d560e11b8152600060048201819052602482015263ffffffff8216604482015273__$74a14bcf01eaef9eb6ea771a290450cb44$__9063202449aa9060640160206040518083038186803b15801561020857600080fd5b505af415801561021c573d6000803e3d6000fd5b505050506040513d601f19601f8201168201806040525081019061024091906105ba565b5050565b6040805180820190915260608152600060208201526040516335aff7fd60e11b81526000600482015263ffffffff8316602482015273__$74a14bcf01eaef9eb6ea771a290450cb44$__90636b5feffa9060440160006040518083038186803b1580156102b057600080fd5b505af41580156102c4573d6000803e3d6000fd5b505050506040513d6000823e601f3d908101601f191682016040526102ec91908101906104ae565b92915050565b6040516334a4425b60e11b815260006004820181905290819073__$74a14bcf01eaef9eb6ea771a290450cb44$__9063694884b690602401604080518083038186803b15801561034157600080fd5b505af4158015610355573d6000803e3d6000fd5b505050506040513d601f19601f82011682018060405250810190610379919061060e565b915091509091565b60405163506923c160e01b815260006004820181905263ffffffff831660248301529073__$74a14bcf01eaef9eb6ea771a290450cb44$__9063506923c19060440160206040518083038186803b1580156103db57600080fd5b505af41580156103ef573d6000803e3d6000fd5b505050506040513d601f19601f820116820180604052508101906102ec91906105ba565b60405163357ab39f60e11b81526000600482018190529073__$74a14bcf01eaef9eb6ea771a290450cb44$__90636af5673e9060240160206040518083038186803b15801561046157600080fd5b505af4158015610475573d6000803e3d6000fd5b505050506040513d601f19601f8201168201806040525081019061049991906105ba565b905090565b80516104a981610714565b919050565b600060208083850312156104c0578182fd5b825167ffffffffffffffff808211156104d7578384fd5b90840190604082870312156104ea578384fd5b6104f26106a4565b825182811115610500578586fd5b8301601f81018813610510578586fd5b805183811115610522576105226106fe565b8060051b93506105338685016106cd565b8181528681019083880186850189018c101561054d57898afd5b8996505b8387101561057b578051945061056685610714565b84835260019690960195918801918801610551565b5084525061058d91505083850161049e565b848201528094505050505092915050565b6000602082840312156105af578081fd5b81356101a381610714565b6000602082840312156105cb578081fd5b81516101a381610714565b600080604083850312156105e8578081fd5b82356105f381610714565b9150602083013561060381610714565b809150509250929050565b60008060408385031215610620578182fd5b825161062b81610714565b602084015190925061060381610714565b6020808252825160408383015280516060840181905260009291820190839060808601905b8083101561068757835163ffffffff168252928401926001929092019190840190610661565b5063ffffffff848801511660408701528094505050505092915050565b6040805190810167ffffffffffffffff811182821017156106c7576106c76106fe565b60405290565b604051601f8201601f1916810167ffffffffffffffff811182821017156106f6576106f66106fe565b604052919050565b634e487b7160e01b600052604160045260246000fd5b63ffffffff8116811461072657600080fd5b5056fea26469706673582212207d1477a7df3fe6598622d713f12d035760b10c18f0daf23e74a21881198c931264736f6c63430008040033",
  "linkReferences": {
    "contracts/Tree.sol": {
      "Tree": [
        {
          "length": 20,
          "start": 143
        },
        {
          "length": 20,
          "start": 624
        },
        {
          "length": 20,
          "start": 781
        },
        {
          "length": 20,
          "start": 949
        },
        {
          "length": 20,
          "start": 1095
        },
        {
          "length": 20,
          "start": 1248
        },
        {
          "length": 20,
          "start": 1382
        }
      ]
    }
  },
  "deployedLinkReferences": {
    "contracts/Tree.sol": {
      "Tree": [
        {
          "length": 20,
          "start": 310
        },
        {
          "length": 20,
          "start": 467
        },
        {
          "length": 20,
          "start": 635
        },
        {
          "length": 20,
          "start": 781
        },
        {
          "length": 20,
          "start": 934
        },
        {
          "length": 20,
          "start": 1068
        }
      ]
    }
  },
  "devdoc": {
    "kind": "dev",
    "methods": {},
    "version": 1
  },
  "evm": {
    "bytecode": {
      "linkReferences": {
        "contracts/Tree.sol": {
          "Tree": [
            {
              "length": 20,
              "start": 143
            },
            {
              "length": 20,
              "start": 624
            },
            {
              "length": 20,
              "start": 781
            },
            {
              "length": 20,
              "start": 949
            },
            {
              "length": 20,
              "start": 1095
            },
            {
              "length": 20,
              "start": 1248
            },
            {
              "length": 20,
              "start": 1382
            }
          ]
        }
      },
      "opcodes": "PUSH1 0x80 PUSH1 0x40 MSTORE CALLVALUE DUP1 ISZERO PUSH2 0x10 JUMPI PUSH1 0x0 DUP1 REVERT JUMPDEST POP PUSH2 0x1B PUSH1 0x0 PUSH2 0x66 JUMP JUMPDEST PUSH2 0x25 PUSH1 0x0 PUSH2 0x66 JUMP JUMPDEST PUSH2 0x2F PUSH1 0x1 PUSH2 0x66 JUMP JUMPDEST PUSH2 0x39 PUSH1 0x2 PUSH2 0x66 JUMP JUMPDEST PUSH2 0x43 PUSH1 0x3 PUSH2 0x66 JUMP JUMPDEST PUSH2 0x4D PUSH1 0x4 PUSH2 0x66 JUMP JUMPDEST PUSH2 0x57 PUSH1 0x5 PUSH2 0x66 JUMP JUMPDEST PUSH2 0x61 PUSH1 0x6 PUSH2 0x66 JUMP JUMPDEST PUSH2 0x12B JUMP JUMPDEST PUSH1 0x40 MLOAD PUSH4 0x101224D5 PUSH1 0xE1 SHL DUP2 MSTORE PUSH1 0x0 PUSH1 0x4 DUP3 ADD DUP2 SWAP1 MSTORE PUSH1 0x24 DUP3 ADD MSTORE PUSH4 0xFFFFFFFF DUP3 AND PUSH1 0x44 DUP3 ADD MSTORE PUSH20 0x0 SWAP1 PUSH4 0x202449AA SWAP1 PUSH1 0x64 ADD PUSH1 0x20 PUSH1 0x40 MLOAD DUP1 DUP4 SUB DUP2 DUP7 DUP1 EXTCODESIZE ISZERO DUP1 ISZERO PUSH2 0xC4 JUMPI PUSH1 0x0 DUP1 REVERT JUMPDEST POP GAS DELEGATECALL ISZERO DUP1 ISZERO PUSH2 0xD8 JUMPI RETURNDATASIZE PUSH1 0x0 DUP1 RETURNDATACOPY RETURNDATASIZE PUSH1 0x0 REVERT JUMPDEST POP POP POP POP PUSH1 0x40 MLOAD RETURNDATASIZE PUSH1 0x1F NOT PUSH1 0x1F DUP3 ADD AND DUP3 ADD DUP1 PUSH1 0x40 MSTORE POP DUP2 ADD SWAP1 PUSH2 0xFC SWAP2 SWAP1 PUSH2 0x100 JUMP JUMPDEST POP POP JUMP JUMPDEST PUSH1 0x0 PUSH1 0x20 DUP3 DUP5 SUB SLT ISZERO PUSH2 0x111 JUMPI DUP1 DUP2 REVERT JUMPDEST DUP2 MLOAD PUSH4 0xFFFFFFFF DUP2 AND DUP2 EQ PUSH2 0x124 JUMPI DUP2 DUP3 REVERT JUMPDEST SWAP4 SWAP3 POP POP POP JUMP JUMPDEST PUSH2 0x75F DUP1 PUSH2 0x13A PUSH1 0x0 CODECOPY PUSH1 0x0 RETURN INVALID PUSH1 0x80 PUSH1 0x40 MSTORE CALLVALUE DUP1 ISZERO PUSH2 0x10 JUMPI PUSH1 0x0 DUP1 REVERT JUMPDEST POP PUSH1 0x4 CALLDATASIZE LT PUSH2 0x62 JUMPI PUSH1 0x0 CALLDATALOAD PUSH1 0xE0 SHR DUP1 PUSH4 0x370841A4 EQ PUSH2 0x67 JUMPI DUP1 PUSH4 0x802A6B30 EQ PUSH2 0x94 JUMPI DUP1 PUSH4 0xA62402C3 EQ PUSH2 0xA9 JUMPI DUP1 PUSH4 0xD9339CC3 EQ PUSH2 0xC9 JUMPI DUP1 PUSH4 0xEBC82B47 EQ PUSH2 0xEE JUMPI DUP1 PUSH4 0xEED11836 EQ PUSH2 0x101 JUMPI JUMPDEST PUSH1 0x0 DUP1 REVERT JUMPDEST PUSH2 0x7A PUSH2 0x75 CALLDATASIZE PUSH1 0x4 PUSH2 0x5D6 JUMP JUMPDEST PUSH2 0x109 JUMP JUMPDEST PUSH1 0x40 MLOAD PUSH4 0xFFFFFFFF SWAP1 SWAP2 AND DUP2 MSTORE PUSH1 0x20 ADD JUMPDEST PUSH1 0x40 MLOAD DUP1 SWAP2 SUB SWAP1 RETURN JUMPDEST PUSH2 0xA7 PUSH2 0xA2 CALLDATASIZE PUSH1 0x4 PUSH2 0x59E JUMP JUMPDEST PUSH2 0x1AA JUMP JUMPDEST STOP JUMPDEST PUSH2 0xBC PUSH2 0xB7 CALLDATASIZE PUSH1 0x4 PUSH2 0x59E JUMP JUMPDEST PUSH2 0x244 JUMP JUMPDEST PUSH1 0x40 MLOAD PUSH2 0x8B SWAP2 SWAP1 PUSH2 0x63C JUMP JUMPDEST PUSH2 0xD1 PUSH2 0x2F2 JUMP JUMPDEST PUSH1 0x40 DUP1 MLOAD PUSH4 0xFFFFFFFF SWAP4 DUP5 AND DUP2 MSTORE SWAP3 SWAP1 SWAP2 AND PUSH1 0x20 DUP4 ADD MSTORE ADD PUSH2 0x8B JUMP JUMPDEST PUSH2 0x7A PUSH2 0xFC CALLDATASIZE PUSH1 0x4 PUSH2 0x59E JUMP JUMPDEST PUSH2 0x381 JUMP JUMPDEST PUSH2 0x7A PUSH2 0x413 JUMP JUMPDEST PUSH1 0x40 MLOAD PUSH4 0x220D408B PUSH1 0xE2 SHL DUP2 MSTORE PUSH1 0x0 PUSH1 0x4 DUP3 ADD DUP2 SWAP1 MSTORE PUSH4 0xFFFFFFFF DUP1 DUP6 AND PUSH1 0x24 DUP5 ADD MSTORE DUP4 AND PUSH1 0x44 DUP4 ADD MSTORE SWAP1 PUSH20 0x0 SWAP1 PUSH4 0x8835022C SWAP1 PUSH1 0x64 ADD PUSH1 0x20 PUSH1 0x40 MLOAD DUP1 DUP4 SUB DUP2 DUP7 DUP1 EXTCODESIZE ISZERO DUP1 ISZERO PUSH2 0x16B JUMPI PUSH1 0x0 DUP1 REVERT JUMPDEST POP GAS DELEGATECALL ISZERO DUP1 ISZERO PUSH2 0x17F JUMPI RETURNDATASIZE PUSH1 0x0 DUP1 RETURNDATACOPY RETURNDATASIZE PUSH1 0x0 REVERT JUMPDEST POP POP POP POP PUSH1 0x40 MLOAD RETURNDATASIZE PUSH1 0x1F NOT PUSH1 0x1F DUP3 ADD AND DUP3 ADD DUP1 PUSH1 0x40 MSTORE POP DUP2 ADD SWAP1 PUSH2 0x1A3 SWAP2 SWAP1 PUSH2 0x5BA JUMP JUMPDEST SWAP4 SWAP3 POP POP POP JUMP JUMPDEST PUSH1 0x40 MLOAD PUSH4 0x101224D5 PUSH1 0xE1 SHL DUP2 MSTORE PUSH1 0x0 PUSH1 0x4 DUP3 ADD DUP2 SWAP1 MSTORE PUSH1 0x24 DUP3 ADD MSTORE PUSH4 0xFFFFFFFF DUP3 AND PUSH1 0x44 DUP3 ADD MSTORE PUSH20 0x0 SWAP1 PUSH4 0x202449AA SWAP1 PUSH1 0x64 ADD PUSH1 0x20 PUSH1 0x40 MLOAD DUP1 DUP4 SUB DUP2 DUP7 DUP1 EXTCODESIZE ISZERO DUP1 ISZERO PUSH2 0x208 JUMPI PUSH1 0x0 DUP1 REVERT JUMPDEST POP GAS DELEGATECALL ISZERO DUP1 ISZERO PUSH2 0x21C JUMPI RETURNDATASIZE PUSH1 0x0 DUP1 RETURNDATACOPY RETURNDATASIZE PUSH1 0x0 REVERT JUMPDEST POP POP POP POP PUSH1 0x40 MLOAD RETURNDATASIZE PUSH1 0x1F NOT PUSH1 0x1F DUP3 ADD AND DUP3 ADD DUP1 PUSH1 0x40 MSTORE POP DUP2 ADD SWAP1 PUSH2 0x240 SWAP2 SWAP1 PUSH2 0x5BA JUMP JUMPDEST POP POP JUMP JUMPDEST PUSH1 0x40 DUP1 MLOAD DUP1 DUP3 ADD SWAP1 SWAP2 MSTORE PUSH1 0x60 DUP2 MSTORE PUSH1 0x0 PUSH1 0x20 DUP3 ADD MSTORE PUSH1 0x40 MLOAD PUSH4 0x35AFF7FD PUSH1 0xE1 SHL DUP2 MSTORE PUSH1 0x0 PUSH1 0x4 DUP3 ADD MSTORE PUSH4 0xFFFFFFFF DUP4 AND PUSH1 0x24 DUP3 ADD MSTORE PUSH20 0x0 SWAP1 PUSH4 0x6B5FEFFA SWAP1 PUSH1 0x44 ADD PUSH1 0x0 PUSH1 0x40 MLOAD DUP1 DUP4 SUB DUP2 DUP7 DUP1 EXTCODESIZE ISZERO DUP1 ISZERO PUSH2 0x2B0 JUMPI PUSH1 0x0 DUP1 REVERT JUMPDEST POP GAS DELEGATECALL ISZERO DUP1 ISZERO PUSH2 0x2C4 JUMPI RETURNDATASIZE PUSH1 0x0 DUP1 RETURNDATACOPY RETURNDATASIZE PUSH1 0x0 REVERT JUMPDEST POP POP POP POP PUSH1 0x40 MLOAD RETURNDATASIZE PUSH1 0x0 DUP3 RETURNDATACOPY PUSH1 0x1F RETURNDATASIZE SWAP1 DUP2 ADD PUSH1 0x1F NOT AND DUP3 ADD PUSH1 0x40 MSTORE PUSH2 0x2EC SWAP2 SWAP1 DUP2 ADD SWAP1 PUSH2 0x4AE JUMP JUMPDEST SWAP3 SWAP2 POP POP JUMP JUMPDEST PUSH1 0x40 MLOAD PUSH4 0x34A4425B PUSH1 0xE1 SHL DUP2 MSTORE PUSH1 0x0 PUSH1 0x4 DUP3 ADD DUP2 SWAP1 MSTORE SWAP1 DUP2 SWAP1 PUSH20 0x0 SWAP1 PUSH4 0x694884B6 SWAP1 PUSH1 0x24 ADD PUSH1 0x40 DUP1 MLOAD DUP1 DUP4 SUB DUP2 DUP7 DUP1 EXTCODESIZE ISZERO DUP1 ISZERO PUSH2 0x341 JUMPI PUSH1 0x0 DUP1 REVERT JUMPDEST POP GAS DELEGATECALL ISZERO DUP1 ISZERO PUSH2 0x355 JUMPI RETURNDATASIZE PUSH1 0x0 DUP1 RETURNDATACOPY RETURNDATASIZE PUSH1 0x0 REVERT JUMPDEST POP POP POP POP PUSH1 0x40 MLOAD RETURNDATASIZE PUSH1 0x1F NOT PUSH1 0x1F DUP3 ADD AND DUP3 ADD DUP1 PUSH1 0x40 MSTORE POP DUP2 ADD SWAP1 PUSH2 0x379 SWAP2 SWAP1 PUSH2 0x60E JUMP JUMPDEST SWAP2 POP SWAP2 POP SWAP1 SWAP2 JUMP JUMPDEST PUSH1 0x40 MLOAD PUSH4 0x506923C1 PUSH1 0xE0 SHL DUP2 MSTORE PUSH1 0x0 PUSH1 0x4 DUP3 ADD DUP2 SWAP1 MSTORE PUSH4 0xFFFFFFFF DUP4 AND PUSH1 0x24 DUP4 ADD MSTORE SWAP1 PUSH20 0x0 SWAP1 PUSH4 0x506923C1 SWAP1 PUSH1 0x44 ADD PUSH1 0x20 PUSH1 0x40 MLOAD DUP1 DUP4 SUB DUP2 DUP7 DUP1 EXTCODESIZE ISZERO DUP1 ISZERO PUSH2 0x3DB JUMPI PUSH1 0x0 DUP1 REVERT JUMPDEST POP GAS DELEGATECALL ISZERO DUP1 ISZERO PUSH2 0x3EF JUMPI RETURNDATASIZE PUSH1 0x0 DUP1 RETURNDATACOPY RETURNDATASIZE PUSH1 0x0 REVERT JUMPDEST POP POP POP POP PUSH1 0x40 MLOAD RETURNDATASIZE PUSH1 0x1F NOT PUSH1 0x1F DUP3 ADD AND DUP3 ADD DUP1 PUSH1 0x40 MSTORE POP DUP2 ADD SWAP1 PUSH2 0x2EC SWAP2 SWAP1 PUSH2 0x5BA JUMP JUMPDEST PUSH1 0x40 MLOAD PUSH4 0x357AB39F PUSH1 0xE1 SHL DUP2 MSTORE PUSH1 0x0 PUSH1 0x4 DUP3 ADD DUP2 SWAP1 MSTORE SWAP1 PUSH20 0x0 SWAP1 PUSH4 0x6AF5673E SWAP1 PUSH1 0x24 ADD PUSH1 0x20 PUSH1 0x40 MLOAD DUP1 DUP4 SUB DUP2 DUP7 DUP1 EXTCODESIZE ISZERO DUP1 ISZERO PUSH2 0x461 JUMPI PUSH1 0x0 DUP1 REVERT JUMPDEST POP GAS DELEGATECALL ISZERO DUP1 ISZERO PUSH2 0x475 JUMPI RETURNDATASIZE PUSH1 0x0 DUP1 RETURNDATACOPY RETURNDATASIZE PUSH1 0x0 REVERT JUMPDEST POP POP POP POP PUSH1 0x40 MLOAD RETURNDATASIZE PUSH1 0x1F NOT PUSH1 0x1F DUP3 ADD AND DUP3 ADD DUP1 PUSH1 0x40 MSTORE POP DUP2 ADD SWAP1 PUSH2 0x499 SWAP2 SWAP1 PUSH2 0x5BA JUMP JUMPDEST SWAP1 POP SWAP1 JUMP JUMPDEST DUP1 MLOAD PUSH2 0x4A9 DUP2 PUSH2 0x714 JUMP JUMPDEST SWAP2 SWAP1 POP JUMP JUMPDEST PUSH1 0x0 PUSH1 0x20 DUP1 DUP4 DUP6 SUB SLT ISZERO PUSH2 0x4C0 JUMPI DUP2 DUP3 REVERT JUMPDEST DUP3 MLOAD PUSH8 0xFFFFFFFFFFFFFFFF DUP1 DUP3 GT ISZERO PUSH2 0x4D7 JUMPI DUP4 DUP5 REVERT JUMPDEST SWAP1 DUP5 ADD SWAP1 PUSH1 0x40 DUP3 DUP8 SUB SLT ISZERO PUSH2 0x4EA JUMPI DUP4 DUP5 REVERT JUMPDEST PUSH2 0x4F2 PUSH2 0x6A4 JUMP JUMPDEST DUP3 MLOAD DUP3 DUP2 GT ISZERO PUSH2 0x500 JUMPI DUP6 DUP7 REVERT JUMPDEST DUP4 ADD PUSH1 0x1F DUP2 ADD DUP9 SGT PUSH2 0x510 JUMPI DUP6 DUP7 REVERT JUMPDEST DUP1 MLOAD DUP4 DUP2 GT ISZERO PUSH2 0x522 JUMPI PUSH2 0x522 PUSH2 0x6FE JUMP JUMPDEST DUP1 PUSH1 0x5 SHL SWAP4 POP PUSH2 0x533 DUP7 DUP6 ADD PUSH2 0x6CD JUMP JUMPDEST DUP2 DUP2 MSTORE DUP7 DUP2 ADD SWAP1 DUP4 DUP9 ADD DUP7 DUP6 ADD DUP10 ADD DUP13 LT ISZERO PUSH2 0x54D JUMPI DUP10 DUP11 REVERT JUMPDEST DUP10 SWAP7 POP JUMPDEST DUP4 DUP8 LT ISZERO PUSH2 0x57B JUMPI DUP1 MLOAD SWAP5 POP PUSH2 0x566 DUP6 PUSH2 0x714 JUMP JUMPDEST DUP5 DUP4 MSTORE PUSH1 0x1 SWAP7 SWAP1 SWAP7 ADD SWAP6 SWAP2 DUP9 ADD SWAP2 DUP9 ADD PUSH2 0x551 JUMP JUMPDEST POP DUP5 MSTORE POP PUSH2 0x58D SWAP2 POP POP DUP4 DUP6 ADD PUSH2 0x49E JUMP JUMPDEST DUP5 DUP3 ADD MSTORE DUP1 SWAP5 POP POP POP POP POP SWAP3 SWAP2 POP POP JUMP JUMPDEST PUSH1 0x0 PUSH1 0x20 DUP3 DUP5 SUB SLT ISZERO PUSH2 0x5AF JUMPI DUP1 DUP2 REVERT JUMPDEST DUP2 CALLDATALOAD PUSH2 0x1A3 DUP2 PUSH2 0x714 JUMP JUMPDEST PUSH1 0x0 PUSH1 0x20 DUP3 DUP5 SUB SLT ISZERO PUSH2 0x5CB JUMPI DUP1 DUP2 REVERT JUMPDEST DUP2 MLOAD PUSH2 0x1A3 DUP2 PUSH2 0x714 JUMP JUMPDEST PUSH1 0x0 DUP1 PUSH1 0x40 DUP4 DUP6 SUB SLT ISZERO PUSH2 0x5E8 JUMPI DUP1 DUP2 REVERT JUMPDEST DUP3 CALLDATALOAD PUSH2 0x5F3 DUP2 PUSH2 0x714 JUMP JUMPDEST SWAP2 POP PUSH1 0x20 DUP4 ADD CALLDATALOAD PUSH2 0x603 DUP2 PUSH2 0x714 JUMP JUMPDEST DUP1 SWAP2 POP POP SWAP3 POP SWAP3 SWAP1 POP JUMP JUMPDEST PUSH1 0x0 DUP1 PUSH1 0x40 DUP4 DUP6 SUB SLT ISZERO PUSH2 0x620 JUMPI DUP2 DUP3 REVERT JUMPDEST DUP3 MLOAD PUSH2 0x62B DUP2 PUSH2 0x714 JUMP JUMPDEST PUSH1 0x20 DUP5 ADD MLOAD SWAP1 SWAP3 POP PUSH2 0x603 DUP2 PUSH2 0x714 JUMP JUMPDEST PUSH1 0x20 DUP1 DUP3 MSTORE DUP3 MLOAD PUSH1 0x40 DUP4 DUP4 ADD MSTORE DUP1 MLOAD PUSH1 0x60 DUP5 ADD DUP2 SWAP1 MSTORE PUSH1 0x0 SWAP3 SWAP2 DUP3 ADD SWAP1 DUP4 SWAP1 PUSH1 0x80 DUP7 ADD SWAP1 JUMPDEST DUP1 DUP4 LT ISZERO PUSH2 0x687 JUMPI DUP4 MLOAD PUSH4 0xFFFFFFFF AND DUP3 MSTORE SWAP3 DUP5 ADD SWAP3 PUSH1 0x1 SWAP3 SWAP1 SWAP3 ADD SWAP2 SWAP1 DUP5 ADD SWAP1 PUSH2 0x661 JUMP JUMPDEST POP PUSH4 0xFFFFFFFF DUP5 DUP9 ADD MLOAD AND PUSH1 0x40 DUP8 ADD MSTORE DUP1 SWAP5 POP POP POP POP POP SWAP3 SWAP2 POP POP JUMP JUMPDEST PUSH1 0x40 DUP1 MLOAD SWAP1 DUP2 ADD PUSH8 0xFFFFFFFFFFFFFFFF DUP2 GT DUP3 DUP3 LT OR ISZERO PUSH2 0x6C7 JUMPI PUSH2 0x6C7 PUSH2 0x6FE JUMP JUMPDEST PUSH1 0x40 MSTORE SWAP1 JUMP JUMPDEST PUSH1 0x40 MLOAD PUSH1 0x1F DUP3 ADD PUSH1 0x1F NOT AND DUP2 ADD PUSH8 0xFFFFFFFFFFFFFFFF DUP2 GT DUP3 DUP3 LT OR ISZERO PUSH2 0x6F6 JUMPI PUSH2 0x6F6 PUSH2 0x6FE JUMP JUMPDEST PUSH1 0x40 MSTORE SWAP2 SWAP1 POP JUMP JUMPDEST PUSH4 0x4E487B71 PUSH1 0xE0 SHL PUSH1 0x0 MSTORE PUSH1 0x41 PUSH1 0x4 MSTORE PUSH1 0x24 PUSH1 0x0 REVERT JUMPDEST PUSH4 0xFFFFFFFF DUP2 AND DUP2 EQ PUSH2 0x726 JUMPI PUSH1 0x0 DUP1 REVERT JUMPDEST POP JUMP INVALID LOG2 PUSH5 0x6970667358 0x22 SLT KECCAK256 PUSH30 0x1477A7DF3FE6598622D713F12D035760B10C18F0DAF23E74A21881198C93 SLT PUSH5 0x736F6C6343 STOP ADDMOD DIV STOP CALLER "
    },
    "gasEstimates": {
      "creation": {
        "codeDepositCost": "377400",
        "executionCost": "infinite",
        "totalCost": "infinite"
      },
      "external": {
        "getAncestorAtDepth(uint32,uint32)": "infinite",
        "getDeepest()": "infinite",
        "getDepth(uint32)": "infinite",
        "getTreeSize()": "infinite",
        "getVertex(uint32)": "infinite",
        "insertVertex(uint32)": "infinite"
      }
    },
    "methodIdentifiers": {
      "getAncestorAtDepth(uint32,uint32)": "370841a4",
      "getDeepest()": "d9339cc3",
      "getDepth(uint32)": "ebc82b47",
      "getTreeSize()": "eed11836",
      "getVertex(uint32)": "a62402c3",
      "insertVertex(uint32)": "802a6b30"
    }
  },
  "storageLayout": {
    "storage": [
      {
        "astId": 477,
        "contract": "contracts/test/TestTree.sol:TestTree",
        "label": "t",
        "offset": 0,
        "slot": "0",
        "type": "t_struct(TreeCtx)21_storage"
      }
    ],
    "types": {
      "t_array(t_struct(Vertex)27_storage)dyn_storage": {
        "base": "t_struct(Vertex)27_storage",
        "encoding": "dynamic_array",
        "label": "struct Tree.Vertex[]",
        "numberOfBytes": "32"
      },
      "t_array(t_uint32)dyn_storage": {
        "base": "t_uint32",
        "encoding": "dynamic_array",
        "label": "uint32[]",
        "numberOfBytes": "32"
      },
      "t_struct(TreeCtx)21_storage": {
        "encoding": "inplace",
        "label": "struct Tree.TreeCtx",
        "members": [
          {
            "astId": 16,
            "contract": "contracts/test/TestTree.sol:TestTree",
            "label": "vertices",
            "offset": 0,
            "slot": "0",
            "type": "t_array(t_struct(Vertex)27_storage)dyn_storage"
          },
          {
            "astId": 18,
            "contract": "contracts/test/TestTree.sol:TestTree",
            "label": "deepestVertex",
            "offset": 0,
            "slot": "1",
            "type": "t_uint32"
          },
          {
            "astId": 20,
            "contract": "contracts/test/TestTree.sol:TestTree",
            "label": "deepestDepth",
            "offset": 4,
            "slot": "1",
            "type": "t_uint32"
          }
        ],
        "numberOfBytes": "64"
      },
      "t_struct(Vertex)27_storage": {
        "encoding": "inplace",
        "label": "struct Tree.Vertex",
        "members": [
          {
            "astId": 24,
            "contract": "contracts/test/TestTree.sol:TestTree",
            "label": "ancestors",
            "offset": 0,
            "slot": "0",
            "type": "t_array(t_uint32)dyn_storage"
          },
          {
            "astId": 26,
            "contract": "contracts/test/TestTree.sol:TestTree",
            "label": "depth",
            "offset": 0,
            "slot": "1",
            "type": "t_uint32"
          }
        ],
        "numberOfBytes": "64"
      },
      "t_uint32": {
        "encoding": "inplace",
        "label": "uint32",
        "numberOfBytes": "4"
      }
    }
  },
  "userdoc": {
    "kind": "user",
    "methods": {},
    "version": 1
  }
}